:10000000F85F00206D2000004D2000004920000016
:10001000352000003520000035200000352000008C
:1000200035200000352000003520000011200000A0
:10003000352000003520000035200000352000006C
:10004000352000003520000035200000352000005C
:10005000352000003520000035200000352000004C
:10006000352000003520000035200000352000003C
:10007000352000003520000035200000352000002C
:10008000352000003520000035200000CD1800008C
:10009000352000003520000035200000352000000C
:1000A00035200000352000003520000035200000FC
:1000B000352000003520000031030000352000000D
:1000C00070B4103A03D378C9103A78C0FBD2530702
:1000D00001D318C918C001D508C908C0D20704D374
:1000E0000B880380891C801C002A01D50B780370C3
:1000F00070BC704730B5002423009BB2082B0CDA8B
:1001000001249C401500EDB2254204D0104C9BB256
:1001100004255D4360515B1CEFE7D2B20D4C2260B9
:1001200030BD30B5002423009BB2082B0CDA01242B
:100130009C401500EDB2254204D0074C9BB204252B
:100140005D4360515B1CEFE7D2B2044C226030BDCE
:1001500000900440A090044000C00440A0C00440AF
:10016000F0B503000E4A0025ADB289B28D4210D21F
:10017000ADB2585D04006D1C1600B6B2360A0948CF
:1001800092B2E4B26240D2B202277A43825A7240FB
:10019000EAE71000024A4240100080B2F0BD00BF02
:1001A000FFFF0000701B000003B56846007943495B
:1001B000087068468079424908706846407941492C
:1001C000087068464078404908703F48007840070A
:1001D0000DD53E480078C0B201008907C90F3A48E2
:1001E0000078C0B202005207D20F9142F1D16846A6
:1001F0004079C0210140402908D168460078800636
:10020000800E402101433248017007E068460078C3
:100210008006800E802101432D4801706846807859
:100220002C4908702B48007840060DD527480078E7
:10023000C0B201004906C90F26480078C0B20200CA
:100240005206D20F9142F1D16846C0782249087017
:10025000684600781E4908701D480078C021084291
:100260000CD11D480078400608D518480078C0B267
:1002700080088007800F0328F7D10BE0134800782F
:10028000C0B280088007800F11490978C9B2890976
:100290008842F3D10E48007880070DD50B480078CE
:1002A000C0B20100C907C90F07480078C0B20200F8
:1002B000D207D20F9142F1D103BD00BF08400640E2
:1002C0000D4006400C4006400140064006400640F6
:1002D0000040064004400640054006401206130A4E
:1002E0001A43130C1A4300BF094205D0830705D0F7
:1002F0000270401C491EF9D170470000130030B451
:1003000014001500103902D310393CC0FCD2490743
:1003100000D30CC000D504C0890002D30280801C29
:10032000002900D5027030BC704700007047000003
:1003300080B511480068C00009D50D480068000666
:1003400005D580200D4908600848006880470A48A4
:100350000068800009D507480068000605D58020A0
:100360000749086001480068804701BD3CC0FF1F85
:1003700000C0034000D003403CF0034000C00348ED
:1003800000D0034800000000000000000000000052
:10039000000000000000000000000000000000005D
:1003A000000000000000000000000000000000004D
:1003B000000000000000000000000000000000003D
:1003C000000000000000000000000000000000002D
:1003D000000000000000000000000000000000001D
:1003E000000000000000000000000000000000000D
:1003F00000000000000000000000000000000000FD
:10040000FFFFFFFFFFFFFFFFFFFFFFFFFEFBFFFF01
:10041000EFF310810800704780F3108870470000E8
:10042000F0B5D14CA5446846D0492822FFF748FED4
:100430000098CF4908606846CE492822FFF740FE61
:100440000198CD4908606846CC492822FFF738FE5C
:100450000298D04908606846CF492822FFF730FE4D
:100460000398CE490143CE4801606846CD49282211
:10047000FFF726FE0498802109030143CA48016062
:100480006846CA492822FFF71BFE0598C0210906C5
:100490000143C74801606846C6492822FFF710FE9D
:1004A0000698C54908606846C4492822FFF708FE37
:1004B0000798C34908606846C2492822FFF700FE32
:1004C0000898F02109030143BF4801606846BF490D
:1004D0002822FFF7F5FD0998BD490860BD4800686E
:1004E000009068460078BC490870C1480078000751
:1004F00002D50820BF490870FFF78AFF040072B6D2
:10050000BD48BE490880BE48BC4908806846BD4910
:100510002CC92CC00C390C3868464089BA4908806F
:100520006846BA492CC92CC00C390C38684640883A
:10053000B74908806846B7492CC92CC00C390C381B
:1005400068468088B44908806846B4492CC92CC0E4
:100550000C390C386846C088B14908806846B149F2
:100560002CC92CC00C390C3868460089AE4908806B
:100570006846AE492CC92CC00C390C386846008836
:10058000802149000143AA4801802000FFF744FF71
:10059000A84803C8A84A6A4403C2083AA7480068A2
:1005A00002B4A5496944086002BC1022A24868440C
:1005B00003C8FFF79FFDA2480078EF210140BC204F
:1005C0000001684440781022104008439C4908709C
:1005D0009C480078EF210140BC200001684400786D
:1005E0001022104008439749087000F0A3FC00282F
:1005F00001D100F003FA00F0ADFC0621924800F0B2
:1006000092FDC82000F0FAFA00209049087078485E
:100610000078C0B24007FAD500F01CFE0A2000F0B6
:10062000EDFA8B4800688B49884205D0042288493E
:10063000A220C00200F045FE85480068CD498842EE
:1006400016D0834800688349884211D08248834984
:100650000860312082490870A02189018878CA7811
:100660001206120C1043D449087000F0C7F9A0E13B
:10067000D24AD3498020400000F023FED149D0481F
:10068000FFF76EFD0700D0480088BFB2874205D053
:10069000CE48007804210143CC480170A021890193
:1006A00008784A781206120C1043C549098880B2AE
:1006B000884205D0C548007801210143C348017034
:1006C000A02189018878CA781206120C1043BC490F
:1006D000498880B2884205D0BC4800780221014395
:1006E000BA480170B648C088B949884212D1A021E1
:1006F000890108794A791206120C1043B049898899
:1007000080B2884218D1B148007810210143AF4827
:10071000017011E0A021890108794A791206120CB2
:100720001043A749C98880B2884205D0A7480078FD
:1007300020210143A5480170A4480078002800D179
:100740009DE0A2480078C00704D50621A14800F02A
:10075000EAFC8BE09D480078800711D506219E4871
:1007600000F0E1FC82E000BF34F4FFFF801E0000D7
:1007700000E00340A81E000004E00340D01E00007B
:1007800092480078C00629D50621944800F0CBFC99
:100790006CE000BF04F00340F81E00005000007839
:1007A00034F00340201F000038F00340481F0000D1
:1007B0003CF00340701F000040F00340981F000011
:1007C00044F00340C01F00004CF00340E81F00004D
:1007D0006CF003408421000000E007407B48007873
:1007E00080063FD506217E4800F09DFC3EE000BF1C
:1007F00002D0074002D0074820C500000E30054057
:1008000028D90000A820000016300540B4200000C0
:1008100004300540C020000006300540CC20000018
:1008200008300540D82000000A300540E4200000D0
:100830000030054024210000C40B00008821000086
:1008400003F00F4017F00F402C21000001E08F5201
:10085000F00F0020EEAEEEBEBFFBECCEF40F00209A
:10086000F80F002006215F4800F05DFC5E4800F0B4
:10087000C5F9A220C00200F049FD00F0BFF85348BE
:100880000078002800D094E00A2000F0C6F9002883
:1008900003D0564856490860FEE7494984B0684687
:1008A000BD221201FFF70CFC0FBC00F051F906004D
:1008B00050480670F6B2972E38D006214E4800F008
:1008C00032FC494800F09AF9404800780821014379
:1008D0003E480170984800689849884203D14348CF
:1008E00043490860FEE7FA20400000F096F900282E
:1008F00003D03E483E490860FEE7A220C00200F057
:1009000005FD00208C49086004228B49A220C0020A
:1009100000F0D7FC884800681649884203D1334864
:1009200033490860FEE700F069F831E0844803C805
:10093000FFF73AFC0A2000F061F901240621814802
:1009400000F0F1FB7D487C49086020000400641C35
:10095000C0B200281CD000F049FA05002DB20020DA
:10096000C043854211D10621774800F0DCFB1E48C8
:1009700002E000BFEFBEADDE00F040F9E4B2032CB0
:10098000E3DB1A481A490860FEE700200400DCE7B0
:10099000642000F033F9A220C00200F0B7FC9248B6
:1009A00065490860642000F029F910481049086082
:1009B000FEE704488544F0BDFB0F0020CE0B00008D
:1009C00040C0FF1FCC0B00000CCCFF1F18CCFF1F3A
:1009D000FFFF0000342100003C2100004421000002
:1009E0004C21000054210000B80B00000400FA055F
:1009F0000CED00E0FA0F00205C2100001FB5534809
:100A000000787A4908704C4800684C49884200D008
:100A100084E00B21002201AC2000FFF75FFC01A85D
:100A200093491CC91CC00C390C38002000900023CD
:100A300001A807C800F006FE00F047FB02208D4920
:100A40000870BF208C4908708C488D4908600020D0
:100A50008C490860802000038B49086080200003D7
:100A60008A490860802000038949086080200003CB
:100A700088490860202088490870BF20874908708D
:100A8000002087490870002086490870EF208649B9
:100A90000870FE2084490870002108000100012030
:100AA000084301000220084301000420084301001C
:100AB0000820084380B2C1437C48018000207C4963
:100AC000087000207B4908707B487C490860FFF76C
:100AD0009FFC009072B67A487A4908807A48794932
:100AE000088000BFC8204000B74908800098FFF781
:100AF00093FC0020B5490870B5480078C0B24007A3
:100B0000FAD50220B34908700420B3490870B348ED
:100B1000006804210143B148016030BF72B6C020B3
:100B20008001AF490860AF480168C02080010068BB
:100B300000F05EF81FBD0000F00F0020EEAEEEBE2C
:100B4000642100006C2100007421000018CCFF1FFC
:100B50000FB410B582B00024E4B2FB2C3DDA04A837
:100B6000E4B20C2161434018008A002826D004A872
:100B7000E4B20C2161434018008A9B4988421DDA87
:100B800004A8E4B20C2161434018018A04A8E4B22D
:100B90000C2262438018806880225200801800F086
:100BA000DFFB010004A8E4B20C2262438018408AF3
:100BB00089B2814202D02000C0B20FE0FFF728FCCA
:100BC000009072B6B748B8490880B848B64908805E
:100BD0000098FFF721FC641CBEE7972002B0019942
:100BE00010BC05B008470000FCECBCACF90F0020BD
:100BF00080F3088880F309888F46704700B57D210F
:100C000048430021814207D200BF00BF00BF00BFA0
:100C100000BF00BF491CF5E700BDF1B50127012465
:100C200000250026E4B2002C1FD0A1480078C006A1
:100C300003D56D1C0020060002E0761C0020050094
:100C400068460088B6B2B04204D368460088ADB2A8
:100C5000A84206D2ADB2002D01D00020070000202E
:100C600004000120FFF7CAFFDCE73800C0B2F2BD84
:100C7000F02000000140064804400644FFFFFB7DD1
:100C80001800034420000340000003400400034018
:100C9000080003400C00034001F0064000F0064449
:100CA00005F08E516CF0034802D007441E700544D5
:100CB00003A0064003D0064000000F806CF0034004
:100CC00020C500000E30054028D90000FAB5A3B0B9
:100CD000070015000520FFF7A0FF002802D0002024
:100CE000C0436FE00020694608700026714C72B660
:100CF0002900380000F07AFB6946087062B6684641
:100D00000078002802D00020C0435BE072B6002DBE
:100D100040D0412D02D34020060000E02E003200DA
:100D200012A9239800F0CDFA2AA80078002813D041
:100D3000002189B2B1420FD2220092B2120A5E485B
:100D4000A4B212AB89B25B5C6340DBB202246343A2
:100D5000C45A5440491CECE702A912A800F0B0F8AC
:100D6000320002A9380000F0EBFB69460870AD1BA9
:100D7000239880192390BF19FFF74AFB019072B6A0
:100D80004848494908804948474908800198FFF781
:100D900043FBBCE762B62AA8007800280AD02000EE
:100DA000444C444024A80088A4B2844202D00020CD
:100DB000C04307E068460078002802D00020C04306
:100DC00000E0002025B0F0BD0030054001E08F526A
:100DD00002D0074002E0175001E0175010ED00E08C
:100DE00008ED00E00430000001080000F0B583B019
:100DF0000520FFF712FF002802D00020C0434FE07B
:100E0000802040000600A02080010700402005004F
:100E10000020009000232A0031003800FFF756FF21
:100E20000021C943884202D10020C04338E0002499
:100E3000E4B2FB2C33DA2148E4B20C2161434018C0
:100E4000008A0500002D28D01C48E4B20C21614323
:100E50004018C06807001948E4B20C2161434018EB
:100E60008068802149004018060068461349E4B2B2
:100E70000C2262438918498A8180012000906846CB
:100E800083882A0031003800FFF720FF0021C94382
:100E9000884202D10020C04302E0641CC8E7002061
:100EA000FEBD000002A600000C30054080B400002A
:100EB00013F00F40FFFF0000701B000040C0FF1F39
:100EC000F1B50C0000250026EDB2402D31DA009876
:100ED000F6B2042171434058000E0700EDB2675589
:100EE0006D1C0098F6B2042171434058000C0700B5
:100EF000EDB267556D1C0098F6B20421714340585D
:100F0000000A0700EDB267556D1C0098F6B2042187
:100F1000714340580700EDB267556D1CEDB22800D3
:100F2000042100F033FC0F00FFB2002FCCD1761C5F
:100F3000CAE7F1BD10B500241920FFF76EFE0028A6
:100F400005D1641CE4B21F2CF6DB012000E0002078
:100F500010BD000080B5A948006880218843A749DA
:100F60000860A648006840218843A4490860A34857
:100F70000068A2490860A1480068A04908609F482D
:100F800000689E4908609D480068C02189030143AC
:100F90009A48016099480068802189020143974876
:100FA0000160964800680721014394480160934816
:100FB0000068102101439148016000F007F88F4854
:100FC0000068802101438D48016001BD00B500210A
:100FD0008B4A116000218B4A116000218A4A1160FE
:100FE00000218A4A116000210800C0B210281CDAD2
:100FF0008749C0B2095C20290ADA814909680122BF
:10100000834BC0B21B5C9A400A437D490A600AE0E8
:101010007D49096801227E4BC0B21B5C203B9A408F
:101020000A4379490A60401CDFE700210800C0B28A
:10103000082831DA7749C0B2095C202914DA7149ED
:1010400009680122734BC0B21B5C9A400A436D4988
:101050000A606B49096801226E4BC0B21B5C9A4062
:101060000A4367490A6015E0684909680122694B2B
:10107000C0B21B5C203B9A400A4364490A60624943
:1010800009680122634BC0B21B5C203B9A400A43B3
:101090005D490A60401CCAE780215F4A1170402107
:1010A0005E4A117020215E4A117010215D4A117054
:1010B00008215D4A117004215C4A117002215C4ACA
:1010C000117001215B4A117000BD4C4800688021FD
:1010D00088434A490860704700B50100C9B22D290C
:1010E00001D101201EE0C9B2302906DBC9B23A297C
:1010F00003DA2E390800C0B214E0C9B2412906DB78
:10110000C9B25B2903DA35390800C0B20AE0C9B2B6
:10111000612906DBC9B27B2903DA55390800C0B260
:1011200000E0002000BD70B506000C00002000F0BB
:1011300012F8E4B2092C0DDA00200500EDB2E4B299
:10114000A54207D2EDB2715D2800C0B200F012F8DE
:101150006D1CF3E770BD00B5002100221100C9B27B
:10116000112906DA344A2A4BC9B25B5CD054491CB7
:10117000F5E700BDF0B585B004000F0001A82F49C8
:101180002CC92CC00C390C3801A8E4B2065D38001B
:10119000C0B2FFF7A1FF694608702948694609787F
:1011A000405CEF2101400D002348F6B280198078A1
:1011B000E9012A0120231A40891804222A408918AB
:1011C0002A00D2B2920802231A4089186A004023EA
:1011D0001A4089182A00D2B2920810231A4089189E
:1011E0002A00D2B2120908231A4089180143124872
:1011F000F6B28019817005B0F0BD000000300440E7
:101200001030044018300440143004401C300440B6
:101210001CC0FF1F2CC0FF1F383004403930044071
:101220003A3004403C3004403D3004403E300440FD
:101230003F30044042300440203004409C200000F5
:10124000581E000008B4024B9C4608BC6047C046CC
:1012500001C0FF1F80B504225D4803C8FEF761FF8F
:101260005C48006800905C480078FB2101406846BB
:1012700040780422104008435749087057480068D6
:10128000009057480078FB2101406846007804220E
:1012900010400843524908700822524803C8FEF71C
:1012A00040FF1022504803C8FEF73BFF2022A04811
:1012B00003C8FEF736FF00229E4803C800F0C0FABC
:1012C00001BDF8B504000F00150004209A4908700C
:1012D000032000F0DBFA2000000CC0B200F0D6FAC8
:1012E000200AC0B200F0D2FA2000C0B200F0CEFA5C
:1012F0000026AE4205D2002000F0C8FAB855761C90
:10130000F7E704208D490870F1BD000010B5040016
:10131000042089490870062000F0B8FA04208749A3
:101320000870042084490870202000F0AFFA2000E3
:10133000000CC0B200F0AAFA200AC0B200F0A6FA6F
:101340002000C0B200F0A2FA04207C4908703220CC
:101350000100481EC9B2002901D000BFF8E710BD46
:10136000F2B50400042074490870032000F08EFADE
:101370002000000CC0B200F089FA200AC0B200F0D0
:1013800085FA2000C0B200F081FAA34D002668461D
:101390000088B6B2864211D2002000F077FA07002A
:1013A000280080B2000A9D49ADB2FFB27D40EAB28A
:1013B00002235A438D5A4540761CE8E72800964D93
:1013C000454004205D490870280080B2F2BD00004D
:1013D000FC2000007C21000042F00F408021000032
:1013E00056F00F40042100000C210000F1B584B03C
:1013F0000E00002069460870049DEF0A2800802135
:10140000090100F0C6F9029100206946487068465B
:101410003900491C802212015143491B81806846D2
:101420008088864203D230006946488003E06846DF
:101430008088694648800020040068464088A4B23D
:1014400084420AD2A4B2285DC0B2FF2803D0012092
:101450006946087001E0641CEFE7684600780028E0
:101460000ED08020000178430299401800F015F852
:1014700069464870C0B200280BD100206946087048
:1014800068464088361A684640882D187F1C002E12
:10149000BDD16846407805B0F0BD70B504000025A8
:1014A00026005F4800780006FBD509205D490870DA
:1014B0003000000C5C490870300A5C49087030004C
:1014C0005B490870FFF7BEFE55480078800609D5D5
:1014D000534800782021014351480170280001251C
:1014E000054322E04E480078C00609D54C480078F4
:1014F000102101434A48017028000225054314E0E9
:1015000047480078400609D5454800784021014306
:101510004348017028000825054306E0404800784C
:10152000C00702D52800042505432800C0B270BDBD
:10153000142100001C2100004AF00F4046F00F402B
:10154000F5B581B00C000025019E0298002801D15C
:1015500011205FE00298401E8008401C07003048C0
:1015600000780006FBD5002F52D0EDB2002D4FD1F0
:1015700006202C4908703000000C2B490870300AF6
:101580002A49087030002A490870207829490870D3
:10159000607829490870A07828490870E0782849BF
:1015A0000870FFF74FFE1E480078800609D51C48DA
:1015B0000078202101431A480170280001250543C5
:1015C00022E017480078C00609D515480078102198
:1015D00001431348017028000225054314E0104818
:1015E0000078400609D50E480078402101430C4898
:1015F000017028000825054306E009480078C00767
:1016000002D52800042505437F1E241D361DAAE7A8
:101610002800C0B2FEBD0000FFFF0000701B0000EC
:1016200000000240070002400600024005000240A0
:10163000040002400B0002400A0002400900024080
:101640000800024007B504980100002916D0394966
:10165000086039490968802252010A4336490A6004
:1016600036490968802252010A4334490A603449E4
:101670000968DBB29A010A4331490A606946097870
:10168000304A1170694649782F4A11706946897845
:101690002E4A11706946C9782D4A11706946097938
:1016A0002C4A1170694649792B4A1170694689792B
:1016B0002A4A11706946C9791A4A11706946097A2D
:1016C000174A11706946497A144A11706946897A35
:1016D000114A1170FF21164A1170FF21134A11702F
:1016E000FF21114A11700F49097880220A430D49E0
:1016F0000A700B49097880220A4309490A70074990
:10170000097880220A4305490A7003490978802232
:101710000A4301490A7007BD11C0074010C00740C5
:101720000FC007400EC007400BC007400AC007406B
:1017300009C0074038C0FF1F80E200E000E100E080
:101740000CE400E000C0074001C0074002C00740B1
:1017500003C0074004C0074005C0074008C0074059
:10176000F446002804D4494200F013F84042604790
:101770004042002905D45FD000F00BF840424942B6
:101780006047494200F005F84942604703460B4371
:10179000E6D40022030A8B420BD203098B4219D2F2
:1017A00043088B422ED2411A00D2014652411046C4
:1017B0007047FF2209023FD012068B4205D3121256
:1017C00009028B4201D31212090203098B4219D379
:1017D00000E0090AC3098B4201D3CB01C01A524170
:1017E00083098B4201D38B01C01A524143098B42BA
:1017F00001D34B01C01A524103098B4201D30B01A3
:10180000C01A5241C3088B4201D3CB00C01A5241C7
:1018100083088B4201D38B00C01A524143088B428C
:1018200001D34B00C01A5241884200D3401A5241A2
:10183000CFD201461046704708B5FEF777FD08BDC8
:1018400013B514002000002805D0184804600220B9
:10185000164909688847684600781949087068463B
:101860004078134908706846C07812490870684685
:10187000007911490870684640791049087010488D
:101880000078402101430E48017013BD00B50100EE
:101890000C4800788006FBD50B4801700948007899
:1018A0000006FBD508480078C0B200BD10CCFF1F71
:1018B00002500740015007400450074005500740C0
:1018C00003500740005007400650074010B59248AB
:1018D0000068400544D591480078C0B29049097825
:1018E000C9B20140402001400C00002C09D08B48B7
:1018F00000788A490870220008210120894B1B6862
:10190000984789480078C0B288490978C9B201402F
:10191000E020084004002000800605D522000221B6
:101920000120804B1B6898472000C021084205D049
:101930002200012101207B4B1B6898477A480078E0
:10194000C0B27B490978C9B201400807000F040002
:10195000002C05D0220004210120724B1B689847FF
:101960006D480068000544D572480078C0B27249DD
:101970000978C9B20140402001400C00002C09D078
:101980006C4800786B490870220008210220654BE2
:101990001B68984769480078C0B269490978C9B29C
:1019A0000140E020084004002000800605D5220008
:1019B000022102205B4B1B6898472000C02108428F
:1019C00005D0220001210220564B1B6898475B4836
:1019D0000078C0B25B490978C9B201400807000F1E
:1019E0000400002C05D02200042102204D4B1B686E
:1019F000984749480068C00444D553480078C0B2AD
:101A000052490978C9B20140402001400C00002C25
:101A100009D04D4800784C49087022000821042064
:101A2000404B1B6898474A480078C0B2494909783A
:101A3000C9B20140E020084004002000800605D51E
:101A4000220002210420374B1B6898472000C02148
:101A5000084205D0220001210420324B1B68984720
:101A60003B480078C0B23C490978C9B20140080738
:101A7000000F0400002C05D0220004210420294B73
:101A80001B68984724480068800444D53348007890
:101A9000C0B233490978C9B20140402001400C006E
:101AA000002C09D02D4800782C490870220008210C
:101AB00008201C4B1B6898472A480078C0B22A4966
:101AC0000978C9B20140E0200840040020008006E7
:101AD00005D5220002210820124B1B6898472000E0
:101AE000C021084205D02200012108200D4B1B68AF
:101AF00098471C480078C0B21C490978C9B2014017
:101B00000807000F0400002C05D022000421082043
:101B1000044B1B68984710BD34F0034005A00640F5
:101B200000A0064014CCFF1F04A0064003A00640FE
:101B300006A0064005B0064000B0064004B00640CE
:101B400003B0064006B0064005C0064000C006408F
:101B500004C0064003C0064006C0064005D006404B
:101B600000D0064004D0064003D0064006D0064010
:101B70000000891112239B322446AD573665BF748D
:101B8000488CC19D5AAFD3BE6CCAE5DB7EE9F7F83D
:101B90008110080193331A22A5562C47B7753E646D
:101BA000C99C408DDBBF52AEEDDA64CBFFF976E81D
:101BB00002218B30100299132667AF763444BD554D
:101BC0004AADC3BC588ED19F6EEBE7FA7CC8F5D9FD
:101BD00083310A2091121803A7772E66B5543C452D
:101BE000CBBD42ACD99E508FEFFB66EAFDD874C9DD
:101BF00004428D5316619F702004A9153227BB360D
:101C00004CCEC5DF5EEDD7FC6888E1997AABF3BABC
:101C100085520C4397711E60A1142805B3373A26EC
:101C2000CDDE44CFDFFD56ECE9986089FBBB72AA9C
:101C300006638F7214409D512225AB343006B917CC
:101C40004EEFC7FE5CCCD5DD6AA9E3B8788AF19B7C
:101C500087730E6295501C41A3352A24B1163807AC
:101C6000CFFF46EEDDDC54CDEBB962A8F99A708B5C
:101C7000088481951AA793B62CC2A5D33EE1B7F08C
:101C80004008C919522BDB3A644EED5F766DFF7C3C
:101C9000899400859BB712A6ADD224C3BFF136E06C
:101CA000C1184809D33B5A2AE55E6C4FF77D7E6C1C
:101CB0000AA583B4188691972EE3A7F23CC0B5D14C
:101CC0004229CB38500AD91B666FEF7E744CFD5DFC
:101CD0008BB502A499961087AFF326E2BDD034C12C
:101CE000C3394A28D11A580BE77F6E6EF55C7C4DDC
:101CF0000CC685D71EE597F42880A1913AA3B3B20C
:101D0000444ACD5B5669DF78600CE91D722FFB3EBB
:101D10008DD604C79FF516E4A9902081BBB332A2EB
:101D2000C55A4C4BD7795E68E11C680DF33F7A2E9B
:101D30000EE787F61CC495D52AA1A3B03882B193CB
:101D4000466BCF7A5448DD59622DEB3C700EF91F7B
:101D50008FF706E69DD414C5ABB122A0B9923083AB
:101D6000C77B4E6AD5585C49E33D6A2CF11E780F5B
:101D7000FCB516491648174B0193019B1B1A1A0014
:101D800013005A1E002B04D003780B70401C491C12
:101D9000F6E7114B114C0094009CE41A2200140049
:101DA000621E002C03D000241C705B1CF7E70C4C57
:101DB0000C4D0D4E771B3A0017007A1E002F04D0F1
:101DC0002F7827706D1C641CF6E7F3BD1CC0FF1F45
:101DD000842000009C20000034C0FF1F19CCFF1F8E
:101DE00000C0FF1F502000006C20000080B510488C
:101DF000007800070ED50F4800680090684600780C
:101E00000D49087040200D4908700D480078C0B297
:101E10004007FAD40B480C4908800C480A4908804E
:101E20000B480C490880FFF7A3FFFEF7F9FA01BD44
:101E30000D0400008C21000000E0074001E08F52FB
:101E400002D0074020C500000E30054028D9000010
:101E5000FEFF0000003005440040AF06CB4F666D2A
:101E6000ED07EF6FE7ECA9CEE9E1ADE6A08E00A8A3
:101E7000C4C4AFE300C06DE8AEAE00006ECB00009E
:101E800000000000000000000100000080AD240000
:101E9000C87FA307036A11100200000000000101BF
:101EA0000000000001000F800000000000000000A2
:101EB0000100000080AD2400C87FA307036A111051
:101EC00002000000000001010000000001000F807E
:101ED00000000000000000000100000080AD2400B0
:101EE000C87FA307036A111002000000000001016F
:101EF0000000000001000F80000000000000000052
:101F00000100000080AD2400C87FA307036A111000
:101F100002000000000001010000000001000F802D
:101F200000000000000000000100000080AD24005F
:101F3000C87FA307036A111002000000000001011E
:101F40000000000001000F80000000000000000001
:101F50000100000080AD2400C87FA307036A1110B0
:101F600002000000000001010000000001000F80DD
:101F700000000000000000000100000080AD24000F
:101F8000C87FA307036A11100200000000000101CE
:101F90000000000001000F800000000000000000B1
:101FA0000100000080AD2400C87FA307036A111060
:101FB00002000000000001010000000001000F808D
:101FC00000000000000000000100000080AD2400BF
:101FD000C87FA307036A111002000000000001017E
:101FE0000000000001000F80000000000000000061
:101FF0000100000080AD2400C87FA307036A111010
:1020000002000000000001010000000001000F803C
:1020100004207146084202D0EFF3098001E0EFF39B
:1020200008808069801E007801490968084700001F
:1020300034C0FF1F00B5024802490860FEE70000F7
:102040000400FA050CED00E000B5FEE700B5FEE780
:1020500000B505480078802101430348017002481B
:1020600000780006FBD500BD00000240404049401A
:1020700052405B4064406D4076407F4072B6FFF74F
:10208000B5FEFEE7020304050607080D0E0F10114A
:102090001213141718191A1C1D1E1F2202030405FF
:1020A000060708090A0E0F0031400000A03F00009B
:1020B0000000000031400000A03F000000000000D0
:1020C00031400000A03F000000000000314000004F
:1020D000A03F00000000000031400000A03F0000D1
:1020E0000000000031400000A03F000000000000A0
:1020F00000000400000000280B00000000010000A8
:1021000000000000000200000000000000020000CB
:10211000000000000002000000000000500000214C
:1021200000000000000100000000000020424F4FAE
:102130005420000045525F484D4E000045525F4814
:102140005056000045525F485346000045525F49D3
:102150004446000045525F484352000045525F43E9
:102160005243000000806048000080004C4F414412
:10217000494E470045525F5257490000FFFF00009B
:10218000FFFF00002200000000000000220000000D
:10219000FFFFFFFFFFFFFFFFFFFFFFFFFFFFFFFF4F
:1021A000FFFFFFFFFFFFFFFFFFFFFFFFFFFFFFFF3F
:1021B000FFFFFFFFFFFFFFFFFFFFFFFFFFFFFFFF2F
:1021C000FFFFFFFFFFFFFFFFFFFFFFFFFFFFFFFF1F
:10280000BEBA07032000FFFF5704000000000000CD
:1028100000000000000000000000000000000000B8
:1028200000000000000000000000000000000000A8
:102830000000000000000000000000000000000098
:102840000000000000000000000000000000000088
:10300000F85F0020B1E60400ABDF040091DF0400AC
:10301000A1DF0400A1DF0400A1DF0400A1DF0400A0
:10302000A1DF0400A1DF0400A1DF040051E30400DC
:10303000A1DF0400A1DF0400B5DF0400F1EC04000F
:10304000E9B2030011B3030039B3030065B3030011
:103050004DE0020049DE04009DDE0400C17E020056
:10306000497F0200BD7F02003180020031D604009A
:10307000877C040045F4040087E60200BFDF0400FB
:10308000DDE40200D9820200CDE4040061680200A0
:10309000E9E004003DE3020065E302008DE3020085
:1030A000B5E302003D90020015BC040039E10400C4
:1030B000C9DF04003B6D0200E9E5020091D904007C
:1030C00000000000010000000000000000000000FF
:1030D00000000000000000000000000000000000F0
:1030E00000000000000000000000000000000000E0
:1030F00000000000000000000000000000000000D0
:1031000000000000000000000000000000000000BF
:10380000FFFFFFFFFFFFFFFFFFFFFFFFFEFBFFFFCD
:1038100038B504000D0025600020207126492000E5
:10382000203007F0C1FE24492000283007F0BCFEFC
:1038300021492000303007F0B7FE0020C921605434
:103840000020CA2160540020CB2160540020CC21EC
:1038500060540020CD2160540020CE21605400200F
:10386000CF2160540020D02160540020D121605429
:103870000020D22160540020D32160540020D421A4
:1038800060540020D52160540020BB4908700020FE
:10389000E074002020750020E0612000283007F04F
:1038A0008DFE2000203007F089FE2000303007F028
:1038B00085FE200032BD0000C4CBFF1F38B50400D8
:1038C0002068406808F010FA002800D152E1206812
:1038D0004078BB2800D14DE1A8480078002810D1DD
:1038E000206840688078C0464F280AD1A4480078F4
:1038F000A449097801224A400243D2B2002A00D0EA
:1039000038E12068083008F08EFB05009E480078FA
:10391000012803D09C480078EE2854D19B480078B9
:10392000002850D09A480078002811D02068BD2186
:1039300089004018006EC046A84209D200208F4975
:103940000870200006F022FD00209149087011E166
:1039500090480078002809D000208849087020008D
:1039600006F081FD00208B4908702CE08248007829
:10397000002828D1207D002825D0CC20205C0028DC
:1039800021D1D020205C00281DD1D120205C00282E
:1039900019D1D220205C002815D1D320205C00282A
:1039A00011D1D420205C00280DD1D520205C002826
:1039B00009D1200005F0D3FC0020704908702000D8
:1039C00000F0ECF8D6E0E06900280ED020002830A6
:1039D00007F0FCFDE169884200D2C8E020002830F1
:1039E00007F0ECFD0020E061C1E0634800780E289C
:1039F00011DB0C229C4801682000401D08F0F7FFF5
:103A000000206074000AA074200000F0C7F80020B5
:103A100059490870ABE0CF20205C002806D0002078
:103A200056490870200005F0F6FCA0E0CB20205C91
:103A3000002806D0002051490870200006F06EF8DA
:103A400095E0C920205C002806D000204B49087072
:103A5000200005F02BFE8AE0CD20205C002806D057
:103A6000002046490870200005F090FE7FE0CC2041
:103A7000205C002806D0002040490870200006F095
:103A800055F974E0D020205C002806D000203B4986
:103A90000870200006F060FA69E0D220205C00285F
:103AA00006D0002035490870200006F0C7F85EE017
:103AB000D320205C002806D0002030490870200068
:103AC00006F0BAF953E0CE20205C002806D0002092
:103AD0002A490870200005F003FF48E0D120205C4F
:103AE000002806D0002025490870200004F08AFC38
:103AF0003DE0CA20205C002806D000201F49087045
:103B0000200005F097FF32E0D420205C002806D08A
:103B100000201A490870200007F094F827E0D5200B
:103B2000205C002806D0002014490870200006F010
:103B300063FD1CE02000303007F048FD1649884244
:103B400015DB12480078002811D020684068807882
:103B5000C0464F2807D1002265212068BD239B0065
:103B6000C0180AF0B8FA2000303007F027FD200016
:103B700007F0A2FC31BD00005FFCFF1F60FCFF1FCF
:103B800017FCFF1FC7CAFF1FD2CAFF1F01FCFF1F80
:103B900005FCFF1F04FCFF1FA9610000F0B5334CBA
:103BA000A5440400002069468881EBA8C0210AF0E2
:103BB000DFFFEBA80C300600D9A848210AF0D8FF97
:103BC000294800680C3005002068406F28490140F2
:103BD00000293FD000230222290003A8801C0BF0FB
:103BE000B2F86846C0892349884233D06846C08904
:103BF000954988422ED06846C0891F49884229D0FD
:103C00006846C0899149884224D06846C0891B49CA
:103C100088421FD06846C089194988421AD0684630
:103C2000C0891849884215D06846C089164988421B
:103C300010D06846C089154988420BD06846C089B3
:103C40001349884206D06846C0891249884201D08B
:103C500004F017F8A07B072820D1E07B07281DD1AE
:103C60000D486946C8813BE050D8FF1F94FBFFFF19
:103C70003FFF601844CB0000284E000053C70000EF
:103C800058CB000052C7000056C300004FCB0000C5
:103C900046CB000022CF00002CCB000000230222E4
:103CA000290003A8801C0BF04EF8607CA17C09065B
:103CB000090C084380B2002806D0607CA17C09066C
:103CC000090C08436946C881E07B362806D068465F
:103CD000C0895E49884201D103F0D3FF3620E073EA
:103CE0000020207198A80BF065F80100206840685A
:103CF0009922D20080180BF00FFA012198A80BF03E
:103D000075F8534908606846C0894F49401A00D188
:103D100016E32B3800D122E3573800D140E34D4958
:103D2000401A01D101F055FD401E01D101F041FDC5
:103D30004949401A00D173E3801F00D185E3083858
:103D400001D100F028FC153801D102F090FE801E50
:103D500001D100F0BFFE401E01D100F0D1FE1038AD
:103D600001D100F029FC001F01D100F070FE3338B2
:103D700001D100F0C1FC1E3801D100F0FDFE401E53
:103D800001D100F0F3FF001F01D100F015FD401E2E
:103D900001D102F0A2FE401E01D100F025FC401E20
:103DA00001D101F014F8C01E01D101F0D9F8EA499F
:103DB000401A01D101F05CF9401F01D101F02BF94B
:103DC000093801D101F038F9093801D101F0E9FDD4
:103DD000401E01D101F0F5FD801E01D101F01FFC54
:103DE000DE49401A01D101F053FC401E01D101F01F
:103DF0005CFCDB49401A01D101F00EFBB8214901FE
:103E0000401A01D101F034F9001F01D101F08FFAFD
:103E1000801E01D101F0C8FBFD218900401A01D1AB
:103E200001F032FB401E01D101F040FB401F01D1E7
:103E300001F03CFB801E01D101F08AFB401E01D144
:103E400001F073F9C74909E01027000008CF00000E
:103E500054D8FF1F6703000028230000401A00D138
:103E600051E2103801D100F0BEFE401E00D10DE33A
:103E7000401E00D196E2401E00D138E3801E01D1E1
:103E800000F0FCFD401E00D1F4E1401E00D15DE3D6
:103E9000401E00D171E3401E00D1ABE2401E01D1B3
:103EA00001F01EFB401E01D101F034FB401E01D188
:103EB00001F0C8FB401E01D101F0D2FB401E01D130
:103EC00001F005FC401E01D101F033FC001F01D1BF
:103ED00001F016FEC01F01D101F095F9401E01D17D
:103EE00000F0A6FF401E01D101F006FD401E01D1E9
:103EF00001F01AFD401E01D101F02CFD401E01D140
:103F000001F03DFD401E01D102F092FD401E01D1A5
:103F100002F0A0FD401E01D101F074FD001F01D18F
:103F200000F094FF123800D1E6E3C01F01D100F089
:103F3000EAFC401E01D100F0F0FC001F01D101F0AD
:103F400052FFCB3801D100F05DFE401E01D100F0E0
:103F50006AFE663800D1D6E195218900401A01D168
:103F600002F06AFB401E01D100F06AFE401E01D142
:103F700000F072FE401E01D100F079FE401E01D11A
:103F800000F081FE401E01D100F088FE401E01D1EC
:103F900000F0B3FE401E01D100F0C2FE001F022857
:103FA00001D800F06CFFC01E01D100F095FF401E4B
:103FB000012801D800F063FF801E01D100F0B4FF9A
:103FC000401F01D101F0F8F9401E01D101F006FABD
:103FD000401E01D100F06BFE401E01D100F07EFEBC
:103FE000401E00D15AE1801E01D101F005FF401EA4
:103FF00001D101F00EFF401E01D101F0AFFB401EC8
:1040000001D101F060FC401E01D102F0DFFC401E36
:1040100001D102F0E5FC0C3801D102F028FD401E70
:1040200001D102F05AFD401E01D101F0F2FB401E09
:1040300001D101F027FC801E01D101F035FC2838A8
:1040400001D100F07DFC401E01D100F091FC0B3845
:1040500001D101F00FFFDE49401A01D101F028F82B
:10406000801F01D102F075FC401E01D102F095FCC9
:10407000401E01D102F067FD401E01D102F077FD24
:10408000401E01D102F087FD401E01D102F097FDD4
:10409000401E01D102F0A7FD401E01D102F0B7FD84
:1040A000401E01D102F0C7FD401E01D102F005FE05
:1040B000401E01D102F03EFE801E01D102F0D9FD6A
:1040C000C01E01D102F02CFF401E01D100F066FCA1
:1040D000C01E01D100F0ABFC401E01D100F0E4FC99
:1040E000401E00D120E2801E00D10EE2C01E01D190
:1040F00002F044FE401E01D102F052FE401E01D1EA
:1041000002F09CFE401E01D102F0AAFE401E01D129
:1041100002F0B4FE401E01D102F0CAFE401E01D1E1
:1041200002F0B9FE401E01D102F0D7FE001F01D1FE
:1041300002F04AFE401E01D102F060FE401E01D195
:1041400002F06AFE001F01D101F086F9401E01D184
:1041500000F054FC9F4907E088260000DB0C0000BB
:104160001A2A0000DB030000401A072801D801F0DA
:1041700099FE083801D102F0B3F9401E01D102F0D6
:1041800029FA401E01D100F06FFE401E012801D81F
:1041900001F065FF801E01D102F002F8401E01D13E
:1041A00002F06FF8401E01D102F0C3FE401E01D1A3
:1041B00002F0B2FF401E01D103F054F8401E01D1BD
:1041C00003F02DF9401E01D103F0B1FB401E01D1D7
:1041D00001F02EFE401E012801D802F083F8801E57
:1041E000032801D801F042FC001F01D101F0FCFCC2
:1041F000401E01D101F0E9FDD349401A00D11BE274
:10420000401E00D15EE2401E00D171E2C01E00D10E
:1042100053E1401E01D101F0F7F9401E01D100F039
:10422000E4FD401E00D112E3401E01D102F0E4F88B
:10423000401E01D103F0B1FC401E01D102F0F0FE9E
:10424000401E01D103F079FA401E01D103F0F1FACA
:10425000401E01D103F07EF8401E01D102F0B1FFF3
:10426000401E01D103F027FA401E01D103F044FAA9
:1042700003F0A0FC2068406F689068468389C022E4
:10428000310068A80AF0D8FC69468989C0B20818CC
:10429000694688810320207103F092FC0020694662
:1042A00008742068406FDA490140002905D168464A
:1042B000007C0421014368460174D6480068D64951
:1042C000884205D16846007C02210143684601749A
:1042D0002068406FC00205D46846007C012101437C
:1042E0006846017468468389C022310004A80AF038
:1042F00081FC69468989C0B2081869468881032013
:10430000207103F05DFCFE2080006946C881022315
:1043100027AAC021C90020684068C04FC0190AF010
:10432000BEFF27A80088BE49884205D10BF00EF9D0
:10433000FA2080006946C8810220207103F040FC09
:10434000AF78FFB2002F01D141200700FFB2390042
:1043500089B22068406807F061FD03F031FC96A83F
:104360000AF028FD0100206840689922D2008018D8
:104370000AF0D2FE002196A80AF038FD67900423C7
:1043800067AAA84920684068A44FC0190AF01AFF1C
:1043900020686C300BF0BCFF0020207103F010FC93
:1043A00003F00EFCA878012806D021D3032813D0EF
:1043B00008D3042818D01BE020689B4940180DF052
:1043C00096FB15E020689949401810F019FA0FE0A3
:1043D0008A0300009607000000212068BD22920099
:1043E000801809F06DFC03E02068783012F045FF7A
:1043F00003F0E6FBA87800280AD0A878082807DA96
:10440000A9782068BD229200801809F059FC05E0C7
:1044100002202071FE2080006946C88103F0D0FB95
:10442000042366AA8249206840687C4FC0190AF0BC
:1044300036FF0023C022310066A80AF0FDFB694662
:1044400088810320207103F0BBFB94A80AF0B2FC22
:104450000100206840689922D20080180AF05CFEB2
:10446000002194A80AF0C2FC659068468389C022A6
:10447000310065A80AF0E0FB69468989C0B20818D6
:10448000694688810320207103F09AFBAAA80AF0EC
:1044900091FC0AF0F9FD649068468389C0223100DE
:1044A00064A80AF0C9FB69468989C0B20818694640
:1044B00088810320207103F083FB042363AA5949F8
:1044C00020684068554FC0190AF0E9FE68468389A4
:1044D000C022310063A80AF0AFFB69468989C0B2E7
:1044E0000818694688810320207103F069FB0223C4
:1044F0007F22290062A80AF03AFCA8A80AF05AFC18
:1045000062990AF0BEFD03F05BFB01232A00921CB6
:10451000484920684068414FC0190AF053FEA87806
:10452000C821605403F04CFB01233200414920684C
:1045300040683A4FC0190AF0B2FE012069468881EE
:104540000320207103F03CFBCD03000020683649B6
:1045500040180DF0CFFC619068468389C02231007D
:1045600061A80AF069FB69468989C0B208186946E2
:1045700088810320207103F023FB02237F2229007E
:1045800060A80AF0F4FB60992068274A80180DF0B3
:10459000D3FC03F015FB2068083007F09BFF5F9009
:1045A0000023C02231005FA80AF046FB69468881DB
:1045B0000320207103F004FB0B2120681A4A8018A5
:1045C0000DF002FD2D902D983C2113F0B6FF2D909B
:1045D0000023C02231002DA80AF02EFB69468881F5
:1045E0000320207103F0ECFA0F2120680E4A801896
:1045F0000DF0EAFC5E900023C02231005EA80AF0B4
:104600001BFB694688810320207103F0D9FA00BFA3
:104610003FFF60184C100020EFCDAB009C04000061
:10462000B05A0000240D0000240B0000A80F000069
:104630000A060000470C0000C04800685D9068460C
:104640008389C02231005DA80AF0B6FA69468989DB
:10465000C0B20818694688810C2391AAE5492068F0
:104660004068E54FC0190AF01AFE68468389C022E7
:10467000310091A80AF0A0FA69468989C0B20818E9
:104680006946888168468389C022310091A8001D4F
:104690000AF070FA69468989C0B2081869468881AB
:1046A00068468389C022310091A8401D0AF0A2FA11
:1046B00069468989C0B2081869468881032020713B
:1046C00003F07EFA002042900020419002237F22D6
:1046D000290042A80AF04BFB06237F22290041A8AB
:1046E0000AF006FB4199429814F03AFB03F068FA8D
:1046F00014F0B0FB03F064FA00202C9000204090EE
:104700000020AC21605002237F2229002CA80AF04F
:104710002EFB207C0A2827DB0020C0B208280DDAF7
:10472000C0B2291889788FAAC0B21154C0B2291812
:10473000897A8DAAC0B21154401CEEE72000B03037
:1047400000902300AC338DAA8FA92068783013F035
:10475000AFF8B421605006237F22290040A80AF058
:1047600006FBAC2020582C902C9880B20090409BE7
:104770006846808932186846C1892068783012F00E
:10478000D7FD68468089503069468881B42020581A
:1047900000280DD168468389C02231002000B43042
:1047A0000AF04AFA69468989C0B2081869468881C0
:1047B0000320207103F004FA00202B9000203F908A
:1047C00002237F2229002BA80AF0D1FA207C0A2894
:1047D00027DB0020C0B208280DDAC0B2291889787A
:1047E0008BAAC0B21154C0B22918897A89AAC0B262
:1047F0001154401CEEE72000B03000902300AC3391
:1048000089AA8BA92068783013F0D9F8B4216050B8
:1048100006237F2229003FA80AF0A9FAAC202058DD
:104820002B902B9880B200903F9B6846808932186D
:104830006846C1892068783012F00AFE684680898F
:104840009630694688810320207103F0B9F9002071
:104850002A9000205C9002237F2229002AA80AF0D7
:1048600086FA207C0A2827DB0020C0B208280DDA4F
:10487000C0B22918897887AAC0B21154C0B22918C9
:10488000897A85AAC0B21154401CEEE72000B030EE
:1048900000902300AC3385AA87A92068783013F0F4
:1048A0008EF8B421605006237F2229005CA80AF00C
:1048B0005EFAAC2020582A90D220205C00281AD121
:1048C0000120D22160542000801D14F0FBFA8821C1
:1048D000605020000A3014F0F5FA8C216050A07B63
:1048E00090216054E07B912160542A98942160507B
:1048F0000120207105E0FE2080006946C881022069
:10490000207103F05DF901232A00921C9949206867
:104910004068394FC0190AF055FC0123320095490F
:1049200020684068344FC0190AF0B9FC012069467C
:1049300088810320207103F043F900BFA0D4FF1F3A
:1049400002237F2229000FA80AF0F0F90FA80178AE
:104950002068BD22920080180AF016F8002805D1C0
:10496000FE2080006946C8810220207103F028F9EA
:104970002068BD218900401809F0E6FF0EA9C91C76
:1049800008700023C02231000EA8C01C0AF032F9C2
:10499000694688810320207103F012F9182015F070
:1049A00053F82068E949405C0EA9891C08706846E4
:1049B0008389C02231000EA8801C0AF0DBF869460A
:1049C0008989C0B20818694688812068E049405842
:1049D0005B9068468389C02231005BA80AF02CF9FD
:1049E00069468989C0B20818694688810320207108
:1049F00003F0E6F8180D00009C04000015F082F8A2
:104A000017F04AFC0EA9491C087068468389C02229
:104A100031000EA8401C0AF0ADF869468989C0B281
:104A20000818694688810320207103F0C9F808221C
:104A30002068C8494118300007F0D9FF68468089CE
:104A40000830694688810320207103F0B9F8206896
:104A50007830D33000780EA9087068468389C02268
:104A600031000EA80AF0C6F869468989C0B2081854
:104A7000694688810320207103F0A2F804200DA963
:104A8000C91C087068468389C02231000DA8C01C6B
:104A90000AF0B0F869468989C0B208186946888169
:104AA0000320207103F08CF82068083007F0B5FA75
:104AB0005A9068468389C02231005AA80AF0BCF88F
:104AC00069468989C0B20818694688810320207127
:104AD00003F076F82068083007F08CFA59906846A1
:104AE0008389C022310059A80AF0A6F8694689894D
:104AF000C0B20818694688810320207103F060F86D
:104B0000002016A9088000201CA9891C0880022307
:104B10001CAA921C80214900206840688E4FC01951
:104B200017F038FD1CA8801C00888C49884203D0EF
:104B3000002016A9088009E0022316AA8221490054
:104B400020684068844FC01917F024FD16A800881B
:104B5000589068468389C022310058A80AF06CF842
:104B600069468989C0B20818694688810320207186
:104B700003F026F84709000002237F22290026A817
:104B80000AF0F5F800203E9006237F2229003EA877
:104B90000AF0EDF806272698012805D02698022865
:104BA00002D02698072801D13A2007003E9880B20B
:104BB0000190BFB20097269BDBB26846808932180D
:104BC0006846C1898C462168BD208000081861466E
:104BD00008F0CAFF68468089C019694688810320A9
:104BE000207102F0EDFF6846808931182068BD22EF
:104BF0009200801809F00AF8694688810320207124
:104C000002F0DEFF27233200EA21C9002068406855
:104C1000534FC0190AF043FB2720694688810320BF
:104C2000207102F0CDFF27232A00921CEA21C9003F
:104C3000206840684A4FC0190AF0C4FA02F0C0FF69
:104C400040232A00921C474920684068444FC019FD
:104C50000AF0B8FA02F0B4FF31002031300017F04A
:104C600077F8694688810320207102F0A9FF2E237E
:104C70002A00921C3C4920684068394FC0190AF04C
:104C8000A1FA02F09DFF31002831300017F090F8B2
:104C9000694688810320207102F092FF300017F0EE
:104CA000B9F8694688810320207102F089FF17F066
:104CB000F5F80DA9891C087068468389C022310067
:104CC0000DA8801C09F096FF69468989C0B20818B2
:104CD000694688810320207102F072FF2900C91CF7
:104CE000A87817F00DF9002805D1FE20800069464C
:104CF000C8810220207102F063FF02237F22290075
:104D000025A8801C0AF01FF82E2325AA921CDE4934
:104D100020684068124FC0190AF054FA02F050FFA0
:104D20002E2325AAD849206840680D4FC0190AF0E3
:104D3000B6FA0023C022310025A809F068FF6946B1
:104D400088810320207102F03BFF00BFA8140000FF
:104D5000B014000099140000CC040000BEBA00009A
:104D60009C04000095080000D50800000020249055
:104D70000127FFB2082F17DA3900C9B22068BD2217
:104D80009200801808F0D9FE249068468389C022DA
:104D9000310024A809F050FF69468989C0B208187B
:104DA000694688817F1CE4E7002024906846838957
:104DB000C022310024A809F03FFF69468989C0B2AA
:104DC0000818694688810320207102F0F9FE31003D
:104DD000200003F0D3F869468989C0B208186946F3
:104DE00088810320207102F0EBFED120205C002896
:104DF00016D10120D12160542000801D14F062F8EA
:104E0000E06720000A3014F05DF880216050A07B3C
:104E100084216054E07B852160540120207105E0ED
:104E2000FE2080006946C8810220207102F0C8FE81
:104E30003100200003F004FD69468989C0B20818DA
:104E4000694688810320207102F0BAFE31002000FB
:104E500003F0F1FE69468989C0B208186946888165
:104E60000320207102F0ACFE31002068783012F08F
:104E700067FE694688810320207102F0A1FE0527A4
:104E80006846C089C449401A08D0401E09D0401E57
:104E90000AD0801E0BD0401E0CD00DE00020070071
:104EA0000AE00120070007E00220070004E00320D9
:104EB000070001E0042007003900C9B22800801C67
:104EC00017F046F9002805D1FE2080006946C88108
:104ED0000220207102F074FE00216846808930189B
:104EE00017F074F869468989C0B208186946888144
:104EF000012168468089301817F068F86946898969
:104F0000C0B2081869468881022168468089301835
:104F100017F05CF869468989C0B20818694688812B
:104F20000320207102F04CFE03216846808930186E
:104F300017F04CF869468989C0B20818694688811B
:104F4000042168468089301817F040F8694689893D
:104F5000C0B20818694688810320207102F030FE33
:104F60002068083007F02EF81390002768468389E0
:104F7000C022310013A809F05FFE69468989C0B2DA
:104F8000081869468881E248070038681390684627
:104F90008389C022310013A809F04EFE6946898931
:104FA000C0B2081869468881DA480700386813904B
:104FB00068468389C022310013A809F03DFE694686
:104FC0008989C0B2081869468881D34807003868C3
:104FD000139068468389C022310013A809F02CFE83
:104FE00069468989C0B2081869468881CB4807009C
:104FF0003868139068468389C022310013A809F0ED
:105000001BFE69468989C0B2081869468881032059
:10501000207102F0D5FD02237F22290057A809F054
:10502000A6FE5799C9B22068E14A80180CF092FF99
:105030000020207102F0C4FDDE480068002801D184
:105040000120207102237F22290056A809F08FFE3B
:1050500056992068D64A80180CF0F4FE002805D135
:10506000FE2080006946C8810220207102F0A8FD60
:105070006846C089E349884208D102237F2229007B
:105080003DA809F074FE03E015090000A87A3D90E0
:105090003D99C9B22068783012F00CF8002805D18B
:1050A000FE2080006946C8810220207102F088FD40
:1050B0006846A9780170EF780020B4216050FFB2F3
:1050C0000C2F01DB0B20070068460078381A4021BE
:1050D00060546846007841216054422027540120E2
:1050E000CF2160540020C84908700020C9216054B5
:1050F0000020CB2160540020CD2160540020D3211A
:1051000060542000801D13F0DDFE606420000A3032
:1051100013F0D8FEA064E07B4C216054A07B4D21AD
:1051200060540120207102F04BFD002023900423E5
:1051300023AAA221C90220684068B44FC01917F001
:1051400029FA2398B249884201D102F039FD52234D
:10515000C4AA8021490020684068AC4FC01917F0EC
:1051600019FA0620694608702068083006F055FFD5
:105170000700C4A88088BFB287420FD16846007874
:105180006946C8816846C089A24940186946C881F5
:105190000220207102F014FD13CF000083A809F053
:1051A00009FE0100206840689922D200801809F0A9
:1051B000B3FF002183A809F019FEE34948623C23AC
:1051C000E14AC321C9018C4620684168DF480818BC
:1051D000614609F0F7FF8E482390A221C90220689A
:1051E00040688A4A801817F007FA042323AAA221EC
:1051F000C9028C462068416884480818614617F047
:105200007BF902F0DDFCA627FF02A420C002059076
:105210000020694608810020694648801823A2AA18
:1052200039000F002068416878480818390017F0E5
:10523000B1F91622390020684068744BC01817F085
:105240006CFA6946488068464088A2A9C98A8842A3
:105250000DD1A2A8428A183A92B2390018312068BA
:1052600040686A4BC01817F058FA694608816846CA
:105270000089A2A9898A884203D1A2A800880728A8
:1052800007D0FE2080006946C8810220207102F00C
:1052900097FC0599206840685C4A801817F0ACF9C3
:1052A0006846A2A9498A01800020019068460088CA
:1052B000002835D068460088412802DB4020019054
:1052C00002E0684600880190019BB4AA39000F00F3
:1052D000206841684D480818390017F05BF9019BB8
:1052E0009BB2B4AA05998C462068416847480818C3
:1052F000614617F001F901983F1805980199401887
:105300000590684669460988019A891A0180CDE7A7
:1053100054F0034058F003405CF0034060F0034059
:1053200003212068406806F079FD02F049FCFE2068
:1053300080006946C88100201CA9088002231CAA9D
:10534000C021C90020684068804FC01909F0A7FF3C
:105350001CA80088CB49884226D102237F2229003D
:105360003CA809F004FD3C992068083006F01AFEBC
:105370003C98400040085590042355AAC249206833
:105380004068724FC01909F01DFF2068BF494018DE
:1053900010F0F8FC2068083006F014FEEE490860B2
:1053A000FA2080006946C8810220207102F008FCC2
:1053B000240B000054D8FF1F2068B449401810F097
:1053C00094FE54900023C022310054A809F034FC0C
:1053D000694688810320207102F0F2FB02237F22BC
:1053E000290053A809F0C3FC539A92B231002068F7
:1053F000A64BC01810F087FE6946888103202071F3
:1054000002F0DEFB50C300001BFCFF1FCC040000B9
:10541000EFBEADDEFD03000002237F2229003BA882
:1054200009F0A5FCFF2297212068BD239B00C0182E
:1054300007F0CAFD3B9981A809F0CFFC0100206864
:1054400040689922D200801809F048FE3B9981A853
:1054500009F017FE02F0B4FB02237F2229003AA8CC
:1054600009F085FC3A997FA809F0B7FC0100206893
:1054700040689922D200801809F030FE3A997FA83E
:1054800009F0FFFD02F09CFB03AA684680893118F1
:105490002068DB4BC0180CF051FB68468089801CEB
:1054A000694688810320207102F08AFB02237F2253
:1054B000290052A809F05BFC529BDBB203AA6846A4
:1054C000808931182068CE4FC0190CF07BFB6846EC
:1054D0008089801C694688810320207102F070FB5E
:1054E00002237F22290051A809F041FC519BDBB225
:1054F00003AA6846808931182068C14FC0190CF092
:1055000095FB68468089801C69468881032020714C
:1055100002F056FB02237F22290050A809F027FC45
:10552000509BDBB203AA6846808931182068B44FCB
:10553000C0190CF0B5FB68468089801C69468881DB
:105540000320207102F03CFB78D7FF1F9C04000071
:1055500000203990002015A9891C088002237F2291
:10556000290039A809F003FC06237F22290015A889
:10557000801C09F0E8FB15A8801C03886846808918
:105580003218399920684068D84FC01909F087FE51
:105590006846808915A9891C098840186946888150
:1055A0000320207102F00CFB0020219000201BA999
:1055B000891C088002237F22290021A809F0D7FB3B
:1055C00006237F2229001BA8801C09F0BCFB219820
:1055D000C021C900884213D32198C549884203D30A
:1055E0002198C44988420BD31BA8801C03882A0039
:1055F0000832219920684068BC4FC01909F0E2FDCB
:105600000020207102F0DCFA31002068083007F039
:1056100097F8694688810320207102F0D1FA17F0CB
:105620001FF90DA9491C087068468389C022310002
:105630000DA8401C09F0DEFA69468881032020711C
:1056400002F0BEFA02237F2229000DA809F06EFBAA
:105650000DA80078E84908700020207102F0B0FA27
:10566000E54800780CA9C91C08700023C02231004D
:105670000CA8C01C09F0BEFA69468881032020717D
:1056800002F09EFAB05A00000A060000A80F0000BF
:10569000A878BB2803D1BB202168487003E0A97813
:1056A000206807F0EDFA02F08BFA206840780CA928
:1056B000891C08700023C02231000CA8801C09F04E
:1056C00099FA694688810320207102F079FA022351
:1056D0007F22290004A8C01C09F028FBC7480078D5
:1056E0006946C97C884207D102202071FE208000D3
:1056F0006946C88102F064FA6846C07CBF490870F8
:105700006846C07C17F0EEFAFF226846C17CB131D2
:1057100089B22068BD239B00C01807F055FCFF220A
:10572000A7212068BD239B00C01807F04DFC02F0A4
:1057300047FAB24800780CA9491C08700023C0221F
:1057400031000CA8401C09F055FA694688810320F5
:10575000207102F035FA00BF2010002002237F22C2
:10576000290004A8801C09F0E1FAA54800786946E0
:10577000897C884207D102202071FE208000694682
:10578000C88102F01DFA6846807C9D490870684611
:10579000807C17F071FBFF22C0206946897C411A8A
:1057A00089B22068BD239B00C01807F00DFC02F0F1
:1057B00007FA17F0E3FA0CA908700023C0223100A1
:1057C0000CA809F017FA694688810320207102F0BD
:1057D000F7F902237F22290008A8401C09F0A6FA45
:1057E000C648007808A9491C097888420AD10220D5
:1057F0002071FE2080006946C88102F0E1F900BFF7
:10580000240B000008A8401C007817F0A1FA02F051
:10581000D7F902237F22290004A8401C09F086FA48
:1058200017F0D6FA07006846407CFFB2874207D0DF
:105830006846407C002803D06846407CC92807DBC6
:1058400002202071FE2080006946C88102F0B8F96C
:10585000012304AA521CE2498C462068416823486F
:105860000818614609F0AEFC6846407C17F0D6FA8D
:10587000FF22C2212068BD239B00C01807F0A4FBB3
:1058800002F09EF917F0A4FA0BA9C91C08700023B6
:10589000C02231000BA8C01C09F0ACF96946888110
:1058A0000320207102F08CF9CE4800684F9000234D
:1058B000C02231004FA809F0BFF969468881032052
:1058C000207102F07DF94E4800780BA9891C087000
:1058D0000023C02231000BA8801C09F08BF9694617
:1058E00088810320207102F06BF900BF9C04000046
:1058F000570C0000E80C000000203890042338AA60
:10590000F321C90020684068D74FC01909F0C7FCCF
:105910000023C022310038A809F08EF96946888139
:105920000320207102F04CF902237F2229004EA8A7
:1059300009F01DFA04234EAAF321C900206840682B
:10594000C94FC01909F03EFC206828301CF00DF941
:1059500002F036F902237F22290008A809F0E6F9AF
:1059600008A80078C1490870012308AAC049206826
:105970004068BD4FC01909F025FC02F021F9BB4871
:1059800000780AA9C91C08700023C02231000AA8A7
:10599000C01C09F02FF9694688810320207102F0AC
:1059A0000FF902237F22290022A8801C09F0CBF9DD
:1059B00022A8801C01882068083006F0D2FD02F081
:1059C000FFF82068083006F0D9FD15A9088015A851
:1059D0000088A849884202D1A74815A908806846CE
:1059E0008389C022310015A809F011F96946888120
:1059F0000320207102F0E4F8621100203CFCFF1F3C
:105A000047FCFF1F00201BA9088000206946C877BB
:105A100002231BAAC021C90020684068924FC01908
:105A200009F03DFC2068283001000020002802D049
:105A300001206946C87768468389C02231001BA8C7
:105A400009F0E5F86946888168468389C0223100FB
:105A500007A8C01C09F0CEF869468989C0B20818A9
:105A6000694688810320207102F0AAF883486946BC
:105A700088856846C0898249884202D18148694642
:105A800088856846C0898049884202D17F48694636
:105A900088856846C0897E49884202D17D4869462A
:105AA000888502230BAAC021C900206840686E4F78
:105AB000C01909F087FB206828301BF037FFC0B2FF
:105AC000012806D015D303280BD006D304280DD007
:105AD0000FE071496A46D1810BE070496A46D18175
:105AE00007E08121C9006A46D18102E0E5496A46A2
:105AF000D1810221217102F063F800BF48FCFF1F31
:105B000000200090002700203790002036900020D1
:105B100069468877002069464877002069460877FB
:105B2000D9480090009800683790D84800900098B5
:105B300000683690D6480700387869468877D54897
:105B40000700387869464877D348070038786946AF
:105B5000087768468389C022310037A809F06CF8BD
:105B600069468989C0B20818694688816846838970
:105B7000C022310036A809F05FF869468989C0B2B1
:105B800008186946888168468389C022310007A8C1
:105B9000801C09F02FF869468989C0B20818694647
:105BA000888168468389C022310007A8401C09F01B
:105BB00021F869468989C0B2081869468881684613
:105BC0008389C022310007A809F014F86946898941
:105BD000C0B20818694688810320207101F0F0FFE7
:105BE000560C0000ACC0FF1F04206946087000205E
:105BF00001902068083006F0E5F94D9020680830E3
:105C000006F0F8F922A9088000206946C876042029
:105C10000AA9891C087007200AA9491C08700320DA
:105C20000AA908706846007808A9C91C08700020F5
:105C3000694688752068083006F0A0FC070017F058
:105C4000C7F808A9891C087017F00EF94C90BFB26C
:105C50009248874224DBBFB29148874220DA38005D
:105C60003030694688751EE09C0400003DFCFF1F33
:105C70009C070000FFFF0000E9070000BC5A00007D
:105C8000D8DA0000B45A0000D9DA0000B55A000092
:105C9000DADA0000B35A000006040000070400002E
:105CA0001920694688757A4801900198006869460C
:105CB000C87668468389C02231004DA808F0BCFF31
:105CC00069468989C0B2081869468881684683890F
:105CD000C022310022A808F09AFF69468989C0B223
:105CE00008186946888168468389C022310006A861
:105CF000C01C08F07FFF69468989C0B20818694650
:105D0000888168468389C02231000AA8801C08F077
:105D100071FF69468989C0B208186946888168465A
:105D20008389C02231000AA8401C08F063FF69463D
:105D30008989C0B208186946888168468389C0226B
:105D400031000AA808F056FF69468989C0B20818D0
:105D50006946888168468389C022310008A8C01C32
:105D600008F048FF69468989C0B2081869468881E9
:105D700068468389C022310005A8801C08F03AFFDC
:105D800069468989C0B2081869468881684683894E
:105D9000C022310008A8801C08F02CFF69468989C0
:105DA000C0B208186946888168468389C0223100DC
:105DB0004CA808F041FF69468989C0B208186946B5
:105DC00088810320207101F0FBFE3100200003F0E8
:105DD000B5F869468989C0B20818694688810320E8
:105DE000207101F0EDFE300015F086FF69468881D4
:105DF0000320207101F0E4FE0020359002237F2271
:105E0000290035A808F0B3FF359816F027FA01F0FD
:105E1000D7FE16F0FDF94B900023C02231004BA8AD
:105E200008F00AFF694688810320207101F0C8FE4E
:105E3000D020205C002815D10120D0216054200002
:105E4000801D13F03FF8A06520000A3013F03AF8E7
:105E5000E065A07B60216054E07B612160540120FB
:105E6000207105E0FE2080006946C8810220207173
:105E700001F0A6FE01212068974A80180BF01FFA56
:105E800001F09EFE09040000F00F0020F40F002036
:105E9000F80F0020F90F0020FA0F0020D1070000B2
:105EA0003408000002237F22290020A808F05FFFA9
:105EB0000020129006237F22290012A808F057FF25
:105EC000002014900A237F22290014A808F04FFF15
:105ED0002098032806D32098072803D206204321C0
:105EE000605402E03A204321605400201190209930
:105EF000C9B22068BD229200801807F01EFE1190E2
:105F00001198002810D168468389C022310011A859
:105F100008F092FE69468989C0B2081869468881EE
:105F20000320207101F04CFE1498129988423FD151
:105F30000120149068468389C022310012A808F01D
:105F400059FE69468989C0B2081869468881684641
:105F50008389C022310014A808F04CFE6946898963
:105F6000C0B2081869468881129880B20190432017
:105F7000205C0090209BDBB268468089321868461E
:105F8000C1892068BD27BF00C01907F0EDFD0122BF
:105F90001499C9B2206806F035FE6846808943210D
:105FA000615C4018694688810320207101F008FE79
:105FB0001198149988420BD314981299401A4021D1
:105FC000605412984121605414984221605422E098
:105FD0001198129988420BD311981299401A4021B6
:105FE000605412984121605411984221605412E08B
:105FF0000020119068468389C022310011A808F062
:106000001BFE69468989C0B2081869468881032049
:10601000207101F0D5FD0120C92160540020CB2161
:1060200060540020CD2160540020CF216054C4482A
:1060300020872098E0632000801D12F043FF6064F9
:1060400020000A3012F03EFFA064E07B4C21605437
:10605000A07B4D2160540120207101F0B1FD002092
:10606000189000201F906846C089B649884204D124
:106070000120189002201F900BE002237F222900AC
:1060800018A808F074FE06237F2229001FA808F034
:106090006EFE002009900A2120680F4A80180BF03C
:1060A00093FF0990099AA849206806F024FD0998F1
:1060B000002813D168468389C022310009A808F05E
:1060C000BBFD69468989C0B20818694688810320EA
:1060D000207101F075FD00BF240B0000CC20205C76
:1060E000002855D109981F9988420BD31F981899F9
:1060F000401A402160541898412160541F98422151
:10610000605422E00998189988420BD3099818998D
:10611000401A402160541898412160540998422146
:10612000605412E00020099068468389C022310043
:1061300009A808F081FD69468989C0B20818694636
:1061400088810320207101F03BFD0120CC216054A7
:106150000020C92160540020CB2160540020CD21B3
:1061600060546846C08920872000801D12F0AAFE76
:10617000206520000A3012F0A5FEA064E07B4C21CF
:106180006054A07B542160540120207101F018FD5F
:10619000FE2080006946C8810220207101F010FDB8
:1061A000CA20205C002864D111222900891C20000B
:1061B000983006F01CFC9820275898202058C34996
:1061C00012F0BBF9781A9821605020687830D330EB
:1061D0000078694648756846407D0F2803D16020E5
:1061E000A921605402E03020A92160549C20205C49
:1061F0006946497D884211D068468389C0223100B2
:1062000005A8401C08F0F6FC69468989C0B2081848
:10621000694688810320207101F0D2FC00212068AA
:10622000783011F013F807000097012398202258C6
:1062300031002068783011F0B9FF694688816846DE
:106240008089012803D10320207101F0B9FC2000CE
:106250000A3012F037FEA064E07B4C216054A07B32
:106260004D2160540120CA2160540520207101F0A5
:10627000A7FCFE2080006946C8810220207101F041
:106280009FFC02237F2229001EA808F070FD1E9F9C
:106290001E988E4912F051F9781A1E90002120683C
:1062A000783010F0D3FF0700009701231E9A3100C9
:1062B0002068783011F07AFF6946888168468089C5
:1062C000012803D10320207101F07AFC1E9A3100CD
:1062D0002068783011F0E1FF694688810320207141
:1062E00001F06EFC207C0A2800DA7DE00020C0B2BC
:1062F00008280DDAC0B2291889786FAAC0B21154E3
:10630000C0B22918897A6DAAC0B21154401CEEE7B8
:106310006846C089BC2160526846C089BF4988422E
:1063200014D12000B03000902300AC336DAA6FA9C7
:106330002068783011F043FBB421605013E000BFB7
:10634000C0DA0000CBDA000020E904002000B03001
:1063500000902300AC336DAA6FA92068783011F04B
:10636000A7FAB4216050AC202058401EAC216050E8
:106370000020B8216050B4202058002811D1684670
:106380008389C02231002000B43008F055FC6946F2
:106390008989C0B20818694688810320207101F0FC
:1063A0000FFC00209E4908700020C9216054002085
:1063B000CF2160540120CB2160540020CD216054B6
:1063C0002000801D12F07EFD606420000A3012F073
:1063D00079FDA064E07B4C216054A07B4D2160548A
:1063E0000120207101F0ECFBFE2080006946C8818D
:1063F0000220207101F0E4FB207C0A2868DB0020E9
:10640000C0B208280DDAC0B2291889787DAAC0B2B6
:106410001154C0B22918897A7BAAC0B21154401C09
:10642000EEE72000B03000902300AC337BAA7DA9BA
:106430002068783011F0C3FAB4216050AC202058A5
:10644000401EAC216050AC202058B8216050B420D0
:106450002058002811D168468389C02231002000CD
:10646000B43008F0E9FB69468989C0B2081869466A
:1064700088810320207101F0A3FB0120D321605407
:106480000020674908700020C92160540020CF21F6
:1064900060540020CB2160540020CD2160542000A6
:1064A000801D12F00FFD8821605020000A3012F08C
:1064B00009FD8C216050A07B90216054E07B9121EC
:1064C00060540120207101F07BFB00BF805101006E
:1064D000FE2080006946C8810220207101F070FB17
:1064E00000201A9002237F2229001AA808F03FFCFE
:1064F0000020299006237F22290029A808F037FCD4
:106500000020B42160500127FFB2082F25DA0020B7
:1065100000903900C9B22068BD229200801807F0AF
:106520000CFB009000982999884208D3B420205889
:10653000299940181A99401AB42160500BE000982C
:106540001A99884207D3B4202058009940181A9904
:10655000401AB42160507F1CD6E7B4202058002890
:1065600011D168468389C02231002000B43008F080
:1065700063FB69468989C0B208186946888103208F
:10658000207101F01DFBB42020581A9940184221B7
:1065900060540020B82160501A984121605421486D
:1065A00020870120E0630120CD2160542000801D60
:1065B00012F088FC606420000A3012F083FCA064B2
:1065C000E07B4C216054A07B4D216054052020715C
:1065D00001F0F6FACE20205C002825D102237F228C
:1065E00029002000C03008F0C2FB06237F222900CA
:1065F0002000C43008F0BBFB0A4820870120CE21D0
:10660000605420000A3012F05DFCA064E07B4C2155
:1066100060540520207101F0D3FA00BFD6DA0000E3
:106620001BFCFF1FC0DA0000FE2080006946C88105
:106630000220207101F0C4FA02237F22290005A85C
:1066400008F074FB052020716846007D01280FD0FA
:1066500000D276E1032825D024D3052800D135E1E6
:1066600000D221E1072800D1FAE000D2C7E068E1BA
:106670000323462229004AA808F079FBE87907009D
:10668000FFB23B0032004A991F0020684368CE48A1
:1066900018183B0015F07EFFFFB268468781032083
:1066A000207154E103234522290010A808F05FFB64
:1066B000E8791790179A0832D2B2290000201BF00F
:1066C000A4FA694608836846008B8021490011F0CE
:1066D00031FF17996918097A88420AD16846008BF8
:1066E0008021490011F026FF17982818407A81422E
:1066F00006D0FE2080006946C8810220207126E174
:10670000109817994018401E19901098FF2188433F
:106710001999FF22914388420BD1179B9BB22A0003
:106720000832109920684068A74FC01915F0E4FEA0
:1067300025E01098FF2188438021490040180090EF
:1067400000981099471A3B009BB22A000832109912
:106750008C46206841689C480818614615F0CCFEBC
:1067600017983900431A9BB2EA19083200998C46EF
:106770002068416894480818614615F0BDFE1098DD
:10678000FF21C94347181098A621C902884203D3A4
:106790001098A249401807003800179911F0CDFE53
:1067A00007003800082111F0C8FE002901D100209F
:1067B000E074E17C029101200190072000903800F4
:1067C000082111F0BAFE0098411A019888400299F8
:1067D0000843E074012322001332F808904941185D
:1067E0008C46206841688F480818614608F0EAFC2A
:1067F0006846007D032801D101F043FAA7E000209C
:10680000289000201D9000200700AF2F1DD20423E8
:106810001DAA04207843824941188C4620684168AB
:1068200080480818614608F03AFD1D9800280AD0F3
:1068300028981D990A00D207D20F801828901D9819
:1068400040081D90F1E77F1CDFE70023C0223100E4
:1068500028A808F0F1F9694688810320207176E0C4
:10686000E8780190602700200090019878436C49F7
:10687000401800900198052801D3202007003B0014
:106880009BB2320000998C46206841686548081820
:10689000614608F004FD6846808939004018694661
:1068A00088810320207152E0002034900323462287
:1068B000290034A808F05BFA349980204001414354
:1068C00020684068404A801815F096FE00204990E4
:1068D000002000900098AF2810D2042349AA009805
:1068E000042148434E494118206840684D4FC01963
:1068F00008F068FC0098401C0090EBE76846007DBB
:10690000042824D00027052F0AD280214902794388
:10691000206840682C4A801815F09AFE7F1CF2E728
:10692000A021C90220684068274A801815F064FE3B
:10693000A221C90220684068234A801815F05CFE35
:1069400005E0FE2080006946C8810220207101F028
:1069500037F902237F22290048A808F008FA2068A6
:106960003149411848981BF08DF920682E4940188C
:1069700012F0A8FA21682D4A89181BF083F9FF222A
:106980009B212068BD239B00C01806F01DFB012041
:106990002168E74A885401F013F920682249401819
:1069A00012F090FA479068468389C022310047A8C8
:1069B00008F042F969468989C0B208186946888199
:1069C0000320207101F0FCF8CC040000310020000D
:1069D00002F0A3FA694688810320207101F0F0F8E3
:1069E000D9AF00201A2804D2291889783954401CBC
:1069F000F8E74421D9A81BF0E7F8D9A94431088069
:106A00004623D9AADC498C46206841680548081805
:106A1000614608F0D7FB01F0D3F800BF00D0FAFFC1
:106A2000470D00009C040000411400001F130000EB
:106A30002900891C2068BD229200801807F036FFCB
:106A4000002805D1FE2080006946C88102202071FF
:106A500001F0B6F831002068BD229200801807F0DE
:106A600059FF694688810320207101F0A9F80021AF
:106A70002068783010F0EAFB3390207C0A281BDB7A
:106A80000020C0B208280DDAC0B22918897879AA86
:106A9000C0B21154C0B22918897A77AAC0B2115471
:106AA000401CEEE76CA800906BAB77AA79A9206830
:106AB000783010F0FDFE339068468389C0223100A3
:106AC00033A808F0B9F869468989C0B20818694640
:106AD00088810320207101F073F80121206878304B
:106AE00010F0B4FB3290207C0A281BDB0020C0B2DF
:106AF00008280DDAC0B22918897875AAC0B21154D5
:106B0000C0B22918897A73AAC0B21154401CEEE7AA
:106B10006AA8009069AB73AA75A92068783010F054
:106B20004EFF329068468389C022310032A808F0B7
:106B300083F869468989C0B20818694688810320AC
:106B4000207101F03DF809232A00921CB949206800
:106B50004068B94FC01908F035FBFF22A121206819
:106B6000BD239B00C01806F02FFA01F029F8092375
:106B7000684680893218AF4920684068AE4FC01916
:106B800008F08DFB684680890930694688810320BA
:106B9000207101F015F811232A00921CD9492068B0
:106BA0004068A54FC01908F00DFBFF22A221206804
:106BB000BD239B00C01806F007FA01F001F810236E
:106BC000684680893218CF49206840689A4FC019BA
:106BD00008F065FB6846808911306946888103208A
:106BE000207100F0EDFF12232A00921CC649206894
:106BF0004068914FC01908F0E5FAFF22A3212068F0
:106C0000BD239B00C01806F0DFF900F0D9FF102368
:106C1000684680893218BC4920684068864FC01990
:106C200008F03DFB68468089123069468881032060
:106C3000207100F0C5FF1022B449B0A805F0D7FEBE
:106C40001022B249ACA805F0D2FE1023B0AAB04978
:106C500020684068784FC01908F0B4FA1023ACAA35
:106C6000AC4920684068744FC01908F0ABFA00F0D6
:106C7000A7FF1023684680893218A549206840681C
:106C80006D4FC01908F00BFB6846808910306946CB
:106C9000888110236846808932189E4920684068A0
:106CA000654FC01908F0FBFA6846808910306946C4
:106CB00088810320207100F083FF10212800801CB0
:106CC0001BF0E3F810232A00921CE821C900206879
:106CD0004068594FC01908F075FA10222900891C24
:106CE0008D4805F084FE0020C0B210280BDA8B49D5
:106CF000C0B2095C884AC0B2125C0A408749C0B27F
:106D00000A54401CF0E71023844AE621C900206899
:106D10004068494FC01908F055FAFF22A5212068A4
:106D2000BD239B00C01806F04FF900F049FF00BFDB
:106D3000451400001023684680893218E821C900F4
:106D4000206840683C4FC01908F0A9FA1022684634
:106D50008089311870481BF084FA102168468089B8
:106D600030181BF092F86846808910306946888197
:106D70000320207100F024FF4D0900002068E34942
:106D800040180FF023FA46900023C022310046A895
:106D900007F052FF694688810320207100F010FF40
:106DA000DB480068002801D10120207102237F22E6
:106DB000290045A807F0DBFF45992068D34A8018D1
:106DC0000FF0C6F900F0FCFE207C801E2074207CB1
:106DD000052801DB04202074042200212068EB4BED
:106DE000C01805F011FE227C92B22900891C20688F
:106DF000E64BC01805F0FBFD00F0E2FE042220681F
:106E0000E3494118300005F0F2FD0420694688810D
:106E10000320207100F0D4FE04222068DB494118D1
:106E2000300005F0E4FD04206946888103202071CC
:106E300000F0C6FE1C0600009C0400002068B34958
:106E400040180FF007FA44900023C022310044A8F4
:106E500007F0F2FE694688810320207100F0B0FE41
:106E600002237F22290043A807F081FF439920686D
:106E7000A64A80180FF0C4F900F0A2FE01223100EA
:106E80002068A24BC0180FF091FA69468881032050
:106E9000207100F095FE0222310020689B4BC01843
:106EA0000FF084FA694688810320207100F088FE83
:106EB0000123207C821ED2B22900891C2068934FB6
:106EC000C0190FF0D9F9002805D0FE2080006946CE
:106ED000C8810220207100F073FE0223207C821EF4
:106EE000D2B22900891C2068884FC0190FF0C4F95C
:106EF000002805D0FE2080006946C881022020714C
:106F000000F05EFE2D0600003E06000068E704006B
:106F10006706000077060000C8CDFF1FB8CDFF1F31
:106F2000300012F039FD694688810320207100F09D
:106F300047FE6846A97801706846E97841709EA8C6
:106F4000102107F015FE1A20029000200190206801
:106F5000694609781A2251434018E1494718019AB5
:106F60000299380007F0D6FD2068694609781A2290
:106F700051434018DA496A461278425420686946FB
:106F800009781A2251434018D6496A465278425429
:106F900068460078D44908700123D34AD349206851
:106FA0004068D34FC01908F00DF9002768464078B3
